:100000000C945B000C9478000C9478000C947800AD
:100010000C9478000C9478000C9478000C94780080
:100020000C9478000C9478000C9478000C94780070
:100030000C9478000C9478000C9478000C94780060
:100040000C9478000C9478000C9478000C94780050
:100050000C9478000C9478000C9478000C94780040
:100060000C9478000C94CC000C9478000C947800DC
:100070000C9478000C9478000C9478000C94780020
:100080000C9478000C9478000C9478000C94780010
:100090000C9478000C9478000C9478000C94780000
:1000A0000C9478000C9478000C947800271E1F2084
:1000B00021222324252611241FBECFEFDAE0DEBF44
:1000C000CDBF11E0A0E0B1E0E8EBF4E002C00590A4
:1000D0000D92AE31B107D9F721E0AEE1B1E001C038
:1000E0001D92A23AB207E1F70E94FA000C945A025C
:1000F0000C940000CF93DF9300D0CDB7DEB79C0106
:100100002115310529F40F900F90DF91CF910895BB
:100110001A82198289819A81803A9F4018F0215071
:100120003109EECF000089819A8101969A838983F3
:10013000F1CFCF93DF93CDB7DEB728970FB6F89402
:10014000DEBF0FBECDBFFE01329697E0DF011D92EC
:100150009A95E9F7198281118B8381E08093E900F8
:100160008091E80085FFFCCFFE013196CE01099613
:1001700021912093F100E817F907D1F78091E80069
:100180008E7F8093E80028960FB6F894DEBF0FBEEE
:10019000CDBFDF91CF9108951F921FB61F921124FA
:1001A0008F939F93EF93FF938091CE00E091210175
:1001B0008D3011F08A3099F4EE2349F0F0E0EE5DD5
:1001C000FE4F108281E08093200110922101FF9167
:1001D000EF919F918F911F901FBE1F901895EF3741
:1001E000B0F791E09E0F90932101F0E0EE5DFE4F9D
:1001F0008083EDCF00D000D000D00F92CDB7DEB716
:100200000FB6F894A8958091600088618093600093
:10021000109260000FBE1092CD0087E08093CC005A
:1002200088E98093C90086E08093CA00259A2D9AB8
:10023000789482E0A82E7E0188E0E80EF11C96E218
:10024000C92E91E0D92E20E2B22E80912001882380
:1002500009F459C0F89444E050E060E071E082E2B3
:1002600091E00E941D02892BB9F5D6010D90002066
:10027000E9F7CD0187529140882E06E211E0912CDA
:1002800089100FC088E20E94990085E090E00E94EA
:100290007A0080E00E94990084E690E00E947A0053
:1002A0002FC0D801ED918D0180ED8E0F8A3090F432
:1002B000E053FF0BE455FF4F84910E94990085E0C5
:1002C00090E00E947A0080E00E94990082E390E032
:1002D0000E947A009394D4CF48E050E065E071E04A
:1002E00082E291E00E941D02892B09F04EC06EE06F
:1002F00071E08AE291E00E940F029C01892B59F47F
:1003000010922001789485B18B2585B984EF91E016
:100310000E947A009ACFC9010E94F1018C016EE01F
:1003200071E090E080E00E940F02009749F30E9484
:10033000F1014C016EE071E090E080E00E940F025C
:100340000097F1F20E94F10119820A831B838C82CB
:100350009D821E821F82A092E9002091E80025FF65
:10036000FCCFFE01319621912093F100EE15FF059F
:10037000D1F72091E8002E7F2093E8000E947A00B8
:100380006EE071E090E080E0B6CF60E171E082E283
:1003900091E00E941402892BA1F48091D80080681A
:1003A0008093D8008091E00081608093E00084EF2A
:1003B00091E00E947A008091E0008E7F8093E000BF
:1003C0009FCF46E050E066E171E082E291E00E945A
:1003D0001D02892B09F094CF88E291E00E94F1017F
:1003E0005DCFFC0188279927E89421912032E9F319
:1003F000293010F02E30C8F32B3241F02D3239F471
:10040000689404C00E945202820F911D21912053D2
:100410002A30C0F31EF4909581959F4F08954EE1C8
:1004200051E00E942B020895FB01DC018D910190A7
:1004300080190110D9F3990B0895FB01DC0141509B
:10044000504030F08D910190801919F40020B9F7D7
:10045000881B990B0895FA01A191B081009719F4B6
:100460001097E1F0CD01DC01CD010D90002011F4D9
:10047000C00113C0FB012191222319F02015D9F7E7
:10048000F3CFFB012191201519F41E92119606C09D
:100490002223C1F70D900020A1F7D001FA01A1930A
:1004A000B08308957AE0979F902D879F802D910DBE
:0804B00011240895F894FFCF18
:1004B80050494E3A005041545445524E3A002C008F
:0E04C80052455345540044454C41593A0000FA
:00000001FF
